:100000000AC01EC01DC01CC01BC01AC019C018C029
:10001000DDC016C0DCC011271FBFCFE5D0E0DEBFBA
:10002000CDBF4BB7E0E4F0E040831BBF48ED5AE0A2
:100030000FB7F894A8954CBF51BF0FBF02D0C8C0EE
:10004000DFCF48ED51E00FB7F8944CBF56BF0FBF5C
:10005000089A199A40E84FBB42E04BBB4DE04DBBBC
:1000600044E047BB45B7436045BF7894E0E4F0E027
:100070004081F42FF87043FF21C055E801C010986B
:1000800070E060E041B7486441BF452F4A95F1F701
:100090006F5F7F4F60324EE47407A0F3109A70E0F8
:1000A00060E041B7486441BF452F4A95F1F76F5F63
:1000B0007F4F683843E17407A0F3E1CF41B748644C
:1000C00041BF9F2F8F2FEF2F5F2F6F2FB2EA75E861
:1000D000C1E0AF2FD2E05DC01A9A4F2F572F5A952B
:1000E000F1F74F5F4A30D0F345B74D7F45BF4DB371
:1000F000406C4DBB4AB7417F42604ABF4AB741603E
:100100004ABF88954AB74E7F4ABF4DB3542F5074AB
:1001100046FDFBCF39B3EF9845B7426045BF1A980B
:100120003C3140F4373148F0562FEE2309F43DC0FE
:10013000B62F3BC0E52F562F38C0B62F562FEC2FC9
:1001400034C0913031F0E1133AC0B3E8B60F8C2FD0
:1001500009C010989D2F31C001998A2F911308C0B2
:10016000E11304C0462F4B1B4D3758F5109A9A2FB8
:10017000F89401B706FF0CC04AB7417F44604ABFFC
:100180004AB741604ABF789488954AB74E7F4ABFC4
:10019000789401B706FD04C041B7486441BF6F5F62
:1001A000462F451B403208F097CF40B14270482B94
:1001B00099F69113C6CF109A9C2F8C2FD9CF8E2FE2
:1001C000D5CF1098B3E8B60F9A2FD2CF18951895BF
:0401D000F894FFCFD1
:00000001FF
